:020000040000fa
:080000000001040000000000f3
:020000040000fa
:0400080010020000e2
:020000040000fa
:04000c00520200009c
:020000040000fa
:040010009202000058
:020000040000fa
:0400140030020000b6
:020000040000fa
:040018007202000070
:020000040000fa
:04001c00e8020000f6
:020000040000fa
:04002000e8020000f2
:020000040000fa
:04002400e8020000ee
:020000040000fa
:04002800e8020000ea
:020000040000fa
:04002c00e8020000e6
:020000040000fa
:04003000e8020000e2
:020000040000fa
:04003400e8020000de
:020000040000fa
:04003800e8020000da
:020000040000fa
:04003c00e8020000d6
:020000040000fa
:04004000e8020000d2
:020000040000fa
:04004400b202000004
:020000040000fa
:04004800e8020000ca
:020000040000fa
:04004c00e8020000c6
:020000040000fa
:04005000e8020000c2
:020000040000fa
:04005400e8020000be
:020000040000fa
:04005800e8020000ba
:020000040000fa
:04005c00e8020000b6
:020000040000fa
:04006000e8020000b2
:020000040000fa
:04006400e8020000ae
:020000040000fa
:04006800e8020000aa
:020000040000fa
:04006c00e8020000a6
:020000040000fa
:04007000e8020000a2
:020000040000fa
:04007400e80200009e
:020000040000fa
:04007800e80200009a
:020000040000fa
:04007c00e802000096
:020000040000fa
:04008000e802000092
:020000040000fa
:04008400e80200008e
:020000040000fa
:04008800e80200008a
:020000040000fa
:04008c00e802000086
:020000040000fa
:04009000e802000082
:020000040000fa
:04009400e80200007e
:020000040000fa
:04009800e80200007a
:020000040000fa
:04009c00e802000076
:020000040000fa
:0400a000e802000072
:020000040000fa
:0400a400e80200006e
:020000040000fa
:0400a800e80200006a
:020000040000fa
:0400ac00e802000066
:020000040000fa
:0400b000e802000062
:020000040000fa
:0400b400e80200005e
:020000040000fa
:0400b800e80200005a
:020000040000fa
:0400bc00e802000056
:020000040000fa
:0400c000e802000052
:020000040000fa
:0400c400e80200004e
:020000040000fa
:0400c800e80200004a
:020000040000fa
:0400cc00e802000046
:020000040000fa
:0400d000e802000042
:020000040000fa
:0400d400e80200003e
:020000040000fa
:0400d800e80200003a
:020000040000fa
:0400dc00e802000036
:020000040000fa
:0400e000e802000032
:020000040000fa
:0400e400e80200002e
:020000040000fa
:0400e800e80200002a
:020000040000fa
:0400ec00e802000026
:020000040000fa
:0400f000e802000022
:020000040000fa
:0400f400e80200001e
:020000040000fa
:0400f800e80200001a
:020000040000fa
:0400fc00e802000016
:020000040000fa
:04010000e802000011
:020000040000fa
:04010400e80200000d
:020000040000fa
:04010800e802000009
:020000040000fa
:04010c00e802000005
:020000040000fa
:04011000e802000001
:020000040000fa
:04011400e8020000fd
:020000040000fa
:04011800e8020000f9
:020000040000fa
:04011c00e8020000f5
:020000040000fa
:04012000e8020000f1
:020000040000fa
:04012400e8020000ed
:020000040000fa
:04012800e8020000e9
:020000040000fa
:04012c00e8020000e5
:020000040000fa
:04013000e8020000e1
:020000040000fa
:04013400e8020000dd
:020000040000fa
:04013800e8020000d9
:020000040000fa
:04013c00e8020000d5
:020000040000fa
:04014000e8020000d1
:020000040000fa
:04014400e8020000cd
:020000040000fa
:04014800e8020000c9
:020000040000fa
:04014c00e8020000c5
:020000040000fa
:04015000e8020000c1
:020000040000fa
:04015400e8020000bd
:020000040000fa
:04015800e8020000b9
:020000040000fa
:04015c00e8020000b5
:020000040000fa
:04016000e8020000b1
:020000040000fa
:04016400e8020000ad
:020000040000fa
:04016800e8020000a9
:020000040000fa
:04016c00e8020000a5
:020000040000fa
:04017000e8020000a1
:020000040000fa
:04017400e80200009d
:020000040000fa
:04017800e802000099
:020000040000fa
:04017c00e802000095
:020000040000fa
:04018000e802000091
:020000040000fa
:04018400e80200008d
:020000040000fa
:04018800e802000089
:020000040000fa
:04018c00e802000085
:020000040000fa
:04019000e802000081
:020000040000fa
:04019400e80200007d
:020000040000fa
:04019800e802000079
:020000040000fa
:04019c00e802000075
:020000040000fa
:0401a000e802000071
:020000040000fa
:0401a400e80200006d
:020000040000fa
:0401a800e802000069
:020000040000fa
:0401ac00e802000065
:020000040000fa
:0401b000e802000061
:020000040000fa
:0401b400e80200005d
:020000040000fa
:0401b800e802000059
:020000040000fa
:0401bc00e802000055
:020000040000fa
:0401c000e802000051
:020000040000fa
:0401c400e80200004d
:020000040000fa
:0401c800e802000049
:020000040000fa
:0401cc00e802000045
:020000040000fa
:0401d000e802000041
:020000040000fa
:0401d400e80200003d
:020000040000fa
:0401d800e802000039
:020000040000fa
:0401dc00e802000035
:020000040000fa
:0401e000e802000031
:020000040000fa
:0401e400e80200002d
:020000040000fa
:0401e800e802000029
:020000040000fa
:0401ec00e802000025
:020000040000fa
:0401f000e802000021
:020000040000fa
:0401f400e80200001d
:020000040000fa
:0401f800e802000019
:020000040000fa
:0401fc00e802000015
:020000040000fa
:100200000f8821000e7f24000e01880000000000ee
:10021000000020000000e000020032000001200089
:100220002002880014000700eb0007000000e00037
:1002300003003a00201121000100200002003700d5
:100240000000200001002000810f7000010032003a
:1002500014000700000020000000e000020032004f
:10026000000002000000000018030200000000006f
:100270000040da000000fe004440a900c000200059
:100280000000e00003003200002020009001880000
:100290004440a800000006008a1f78008b1f7800e9
:1002a00000000600a1028800800478000000eb0036
:1002b0001f003700e284440054a0b4009905ba003e
:1002c000e284440054a0b4009906ba00e2844400d9
:1002d00054a0b4000006eb00476fde00fd07b2003b
:1002e000ae018800636ce10003003a00eaff0700fa
:1002f0000000eb000e003700606ce10008003a00df
:10030000004deb000a05e800020039003420ec0043
:100310000af0a0008b05e900f9ff3e000400370059
:100320006168e100010032000086eb000b0007006d
:1003300019c7ba001905ba000e04e00003003a001c
:100340000a00e000dbff3a0000000600fe07b200f2
:10035000ae0288008a047800f5ff37000cd0a300b5
:10036000e20f4d001c00390089027800354dba00bb
:100370000a05e800020039003420ec000af0a00071
:100380008b05e9000f003200254dba000a05e80090
:10039000020039003420ec000af0a0008b05e900cf
:1003a000080032000c00e0000600320015cdba0053
:1003b0000a05e800020039003420ec000af0a00031
:1003c0008b05e9008984e80054a0b4000b00e0002c
:1003d000e2ff3a00000006009902ba00055d7800cd
:1003e0008b05e900f7ff3200c82ade00055d7800c2
:1003f0008b05e900f3ff32000c00e000f1ff320052
:1004000019ddba00eeff37007e0e04000000000088
:10041000880f0400000000006609040000000000ce
:100420003600f800809fbe00829fbe00849fbe0001
:10043000869fbe000000fa008020a9000000eb00ab
:10044000e90707000080fa004f03be004f02be001c
:100450004f01be004f00be003600f900004006000c
:100460003600f800809fbe00829fbe00849fbe00c1
:10047000869fbe000000fa00e00707008040a90048
:1004800010002000d80707000080fa004f03be00cc
:100490004f02be004f01be004f00be003600f90003
:1004a000004006003600f800809fbe00829fbe001c
:1004b000849fbe00869fbe000000fa008060a900f5
:1004c00020002000c80707000080fa004f03be008c
:1004d0004f02be004f01be004f00be003600f900c3
:1004e000004006003600f800809fbe00829fbe00dc
:1004f000849fbe00869fbe000000fa008080a90095
:1005000030002000b80707000080fa004f03be004b
:100510004f02be004f01be004f00be003600f90082
:10052000004006003600f800809fbe00829fbe009b
:10053000849fbe00869fbe000000fa008600a900ce
:1005400070002000a80707000080fa004f03be00db
:100550004f02be004f01be004f00be003600f90042
:10056000004006003600f800809fbe00829fbe005b
:10057000849fbe00869fbe000000fa00804180007c
:100580000000e00002003200804180000000010015
:10059000f0872100104078008040e800f0872100bb
:1005a00001487800e087210011c0b30001487800bd
:1005b00088e0a9000080fa004f03be004f02be0091
:1005c0004f01be004f00be003600f900004006009b
:1005d0000040da000000fe00000005008001780005
:1005e00002003700b15978000201e9000200e00082
:0805f000fcff3a0000000600c8
:020000040000fa
:1005f8000e14000000000000000000000e0a0000b9
:080608000000000000000000ea
:020000040000fa
:100610000000fa0047e7a8000080fa00000006008a
:100620000000fa0047e7a9000080fa000000060079
:100630000200fa00780707005803070010c62100df
:10064000190607000000eb00240607006096200052
:10065000320607003906070020c0b30014e8b700cf
:1006600001003700000000000000eb00000f7800e0
:1006700019c8bf000004e00004003200470307006f
:100680001968ef0010c0b3000de8b7000dc8bf0037
:100690000004e0003a00320010c0b3002804070054
:1006a000401f20000907070017003700a084210021
:1006b0006204070041842100a0842100f0000700ab
:1006c0000000e0000c0032001bc8bf000080fb00ef
:1006d0006600b9008000780020832100008040007f
:1006e0006200200041842100bcff07001bc8bf003e
:1006f0000040e8001be8b7008ee6a800a00020003c
:10070000f20607008ee6a9003b0407000004e000a3
:10071000e6ff3a0001c7b30070c0b30081030700d1
:10072000650407005c04070020c0b3000404070050
:100730000c0037001bc8bf000040e9001be8b700f1
:10074000228321001bc8bf000080fb006600b900a7
:10075000000078000000410011040700e0012000c3
:10076000da0607001bc8bf000004e000f1ff3a00f2
:10077000490407008e26a9000d68ef00020037002b
:10078000450407008e26a900c0122000cf060700ee
:100790009fff07000000eb00000f7800010037000a
:1007a0001e0fe8001e007800f30f5000fcff36001b
:1007b0000000eb00000f78000f0037009021ef00e1
:1007c0001000200056050700800078001e00780009
:1007d0000001400020832000000041000108780053
:1007e00000000000810c800070022000808f50000b
:1007f000fcff36001e0fe800f07f20009e0078000e
:10080000808f5000edff360085ff07000028ef00c5
:100810000228ef000428ef000628ef000000eb009c
:10082000000f78000d0037001e00780080004000a7
:100830002083200000804000100078006101b80093
:10084000204080003140800002004000838048004a
:1008500020408800314088001e0fe800f07f200013
:100860009e007800808f5000efff3600204080000f
:10087000314080004509dd004b00de0000007100c2
:10088000cb08de0020408800314088000000eb00eb
:10089000000f7800140037001e0078008000400030
:1008a00020832000008040001000780000017800c4
:1008b000204080003140800000007800000051009e
:1008c00000f0a7000000ea006101b90000408000cc
:1008d00011408000020040008380480000408800f2
:1008e000114088001e0fe800f07f20009e00780075
:1008f000808f5000e8ff3600e2408000f340800027
:100900002041800031418000000151008181590067
:100910000040800011408000800f5100818f5900fd
:100920000b003e00e2408000f34080000041800068
:100930001141800002014000838148000040800096
:1009400011408000800f5100818f59000900310053
:100950008f06a800a00020005c0607008f06a900f3
:1009600010c0b30028e8b70010c0b3000ce8b7000f
:100970000d00370028c8bf000004e0000700320067
:100980008f06a800a0002000500607008f06a900cf
:1009900010c0b3000ce8b700020037000c68ef008d
:1009a000bd0307002868ef000cc8bf000004e0008a
:1009b0002b003200b803070020c0b300600307001b
:1009c000a00020004106070040842100e1c0b300e0
:1009d000014878005084210081c2b30001487800aa
:1009e00000408000114080004808de008040780010
:1009f00060842100014878000040800011408000a0
:100a00004008de00804078007084210001487800b2
:100a100000408000114080004809dd004800de00f1
:100a200000007100c808de0080407800808421004a
:100a3000014878000040800011408000804078002c
:100a4000908421000148780040842100540307006d
:100a5000500020001d06070010c0b3000de8b700cd
:100a600018c8bf000004e000fefe3200820207004a
:100a70001868ef0010c0b3000de8b700fafe3700a9
:100a80000400fa00000f7800110798001e00e8002b
:100a9000104078000080fb006101b90030ff2f009a
:100aa000f1ff2f0002004000838048000203200075
:100ab00003002000820f5000838f580000023e0088
:100ac0000060010030003700fd0137003c003700b6
:100ad00062003700fa013700f9013700f8013700ea
:100ae000f7013700f6013700f501370087003700be
:100af000f3013700f2013700f1013700f001370050
:100b0000ef013700ee013700ed013700ec0137004f
:100b1000eb013700ea013700e9013700e80137004f
:100b2000e7013700e6013700e5013700e40137004f
:100b3000e301370093003700b3003700d3003700dc
:100b40002501370050013700f70037007a013700e0
:100b500095013700da013700a7013700ac013700f3
:100b6000b1013700a7013700ac013700b1013700f0
:100b7000d3013700d2013700d1013700d00137004f
:100b8000af013700c401370029c8bf000004e000ee
:100b9000050032001e0090000000e800c1c0b30054
:100ba00001487800040037001e0090000000e800b3
:100bb00051c1b3000148780010002000c101370086
:100bc0001e009000e1c0b300014878001e009000b4
:100bd0000000e80011c1b300014878001e00900039
:100be0000081e80040408000514080004808de005d
:100bf00000407800004978001e009000630140002a
:100c000040408000514080004008de0000407800f5
:100c1000004978001e0090006401400040408000c0
:100c200051408000c809dd004800de0000807100ee
:100c3000c808de0000407800004978001e009000df
:100c40006501400040408000514080000040780035
:100c500000497800100020009a0137001e00900023
:100c6000e1c0b300014878001e0090000000e800d9
:100c7000c1c0b300014878009e0078006580400044
:100c8000104078000081fb008001eb009e0078009e
:100c900064804000104078000082fb008002eb007e
:100ca0004828dd00c820de00810070004820dd00fb
:100cb00000017100818171009e0078006380400016
:100cc000104078000080fb008000eb00c000dd00d9
:100cd0000000200000017100818171001e80e80089
:100ce000104078000080fb008000eb00c800dd00b1
:100cf00000002000000071008180710040408800e9
:100d000051408800100020006e0137001e00900046
:100d1000e1c0b300014878001e0090000000e80028
:100d200041c1b30001487800be010700b04088000f
:100d30001e0090000080e8008040eb000148780031
:100d40001e009000630040008040eb0001487800e6
:100d50001e00900064004000b1408000c808de0022
:100d600081407800014878001e0090006500400036
:100d7000b1408000814078000148780010002000d8
:100d8000500137001e009000e1c0b3000148780018
:100d90001e0090000000e80091c2b30001487800f6
:100da0001e0090000080e8008040eb0001487800c1
:100db0001e009000630040008040eb000148780076
:100dc0001e009000640140002041800031418000fd
:100dd000c809dd004800de0000807100c808de00a0
:100de00000407800004978001e0090006501400036
:100df00020418000314180000040780000497800a7
:100e0000100020002f0137001e009000e1c0b30049
:100e1000014878001e0090000000e800a1c2b30065
:100e2000014878001e0090000080e8008040eb0040
:100e3000014878001e009000630040008040eb00f5
:100e4000014878001e0090006401400000418000cd
:100e500011418000c809dd004800de0000807100fb
:100e6000c808de0000407800004978001e009000ad
:100e70006501400000418000114180000040780081
:100e800000497800100020000e0137001e0090007d
:100e9000e1c0b300014878001e0090000000e800a7
:100ea000b1c2b300014878001e0090000081e80044
:100eb000e0408000f14080004808de0000407800fb
:100ec000004978001e00900063014000e04080006f
:100ed000f14080004008de000040780000497800c2
:100ee0001e00900064014000e0408000f14080005e
:100ef000c809dd004800de0000807100c808de007f
:100f000000407800004978001e0090006501400014
:100f1000e0408000f1408000004078000049780007
:100f200010002000e70037001e009000e1c0b30071
:100f3000014878001e0090000000e800c1c0b30026
:100f4000014878009e0078006580400010407800dd
:100f50000081fb008001eb009e007800648040006f
:100f6000104078000082fb008002eb004828dd0082
:100f7000c820de00810070004820dd000001710003
:100f8000818171009e0078006380400010407800ed
:100f90000080fb008000eb00c000dd0000002000ae
:100fa00000017100818171001e80e800104078000e
:100fb0000080fb008000eb00c800dd000000200086
:100fc0000000710081807100e0408800f1408800dd
:100fd00010002000bb0037001e009000e1c0b300ed
:100fe000014878001e0090000000e800c1c0b30076
:100ff000014878001e01780065004100104078002b
:101000000081fb008001eb009e00780064804000be
:10101000104078000082fb008002eb004828dd00d1
:10102000c820de00810070004820dd000001710052
:10103000818171009e00780063804000104078003c
:101040000080fb008000eb00c000dd0000002000fd
:1010500000017100818171001e80e800104078005d
:101060000080fb008000eb00c800dd0000002000d5
:1010700000007100818071002041880031418800aa
:10108000100020008f0037001e009000e1c0b30068
:10109000014878001e0090000000e800c1c0b300c5
:1010a000014878001e01780065004100104078007a
:1010b0000081fb008001eb009e007800648040000e
:1010c000104078000082fb008002eb004828dd0021
:1010d000c820de00810070004820dd0000017100a2
:1010e000818171009e00780063804000104078008c
:1010f0000080fb008000eb00c000dd00000020004d
:1011000000017100818171001e80e80010407800ac
:101110000080fb008000eb00c800dd000000200024
:101120000000710081807100004188001141880039
:1011300010002000630037001e009000e1c0b300e3
:10114000014878001e0090000000e800f1c2b300e2
:10115000014878001e0090000080e8008040eb000d
:10116000014878001e009000630040008040eb00c2
:10117000014878001e00900064004000514180004a
:10118000c808de0081407800014878001e00900009
:10119000650040005141800081407800014878009e
:1011a00010002000470037001e009000e1c0b3008f
:1011b000014878001e0090000000e800c1c0b300a4
:1011c000014878001e017800650041001040780059
:1011d0008080fb009e017800648041001040780010
:1011e0000080fb004800dd000100700050418800d5
:1011f00010002000330037008ec6a8000000eb006e
:10120000300037008ec6a9000000eb002d0037002b
:101210008ee6a8000000eb002a0037008ee6a90049
:101220000000eb00270037008f06a8000000eb004d
:10123000240037008f06a9000000eb0021003700d2
:101240001e009000e1c0b300014878001e0090002d
:101250000000e800c1c0b300014878008e0107001b
:1012600020c0b30036010700a000200017040700cb
:10127000408421004a010700a00020001304070059
:101280008501070010c0b3000ee8b7003500070065
:101290000000eb000b0037001e009000e1c0b3001f
:1012a000014878001e0090000000e800c1c0b300b3
:1012b000014878000e68ef000000eb0001003700e5
:1012c000100020000080fa00000006000000fa0074
:1012d0002203070010c62100f30207000000eb0004
:1012e000fe0207001503070014c8bf00e14f5000bd
:1012f00009003a001ac8bf00fe4f50000600360031
:1013000010c0b30019e8b70010c0b3000de8b70073
:101310001a68ef00110037001ac8bf00fe4f5000d6
:101320000600360010c0b30018e8b70010c0b300c4
:101330000de8b7001a68ef00080037001ac8bf00b0
:101340000040e8001ae8b7008ec6a800400120005f
:10135000de0307008ec6a9000040fe000080fa00f0
:10136000000006000000fa0010c62100ce020700af
:101370000000eb00d902070060962000e70207009a
:1013800021000700ed02070010c0b30014e8b70009
:101390000040fe000080fa00000006000600fa008f
:1013a0007bc6a8008ec6a80040012000c703070026
:1013b0008ec6a9002130280005000900315f7800a1
:1013c0006e00b100638721000287210021c0b300b5
:1013d00020c0b3009f0007002f01070020c0b3000a
:1013e000d7000700a0002000b80307000e00780017
:1013f000eb0007002801070010c0b3000de8b7009c
:101400000080fa00000006000000fa007bc6a90078
:101410008ec6a9008ee6a9008f06a9000080fa00fa
:10142000000006000000fa007ba6a80078fc070078
:1014300040062000a50307001028ef000300370036
:10144000804080000000e8008040880080408000ec
:10145000f30f5000faff36000000eb0030020700e7
:10146000b04088006efc07007ba6a900b040800059
:101470000080fa00000006000800fa00e2004700c1
:10148000c22f280005000900b25878000000eb00c8
:10149000000f78000001070020c0b300a80007007b
:1014a000a0002000890307008ee6a800ddff0700ea
:1014b000000f7800b1408000b0852000808f500080
:1014c00001003e002968ef008ee6a9008ec6a80044
:1014d0000040eb00404798000040eb005047980068
:1014e0001e0078004800de00004078006047980049
:1014f0001e00780000407800704798000e80e800d9
:10150000a7000700a0002000700307008ec6a900f6
:10151000e100070010c0b3000de8b7000080fa003a
:10152000000006000200fa00004f78001147980002
:101530008e06a9001e4078000054a0007301070029
:101540001e409000710107008e06a8000080fa007e
:10155000000006000400fa00204798008e06a9004b
:101560002e409000690107000040eb006701070072
:10157000004f78008e06a8001e4078000080fa0018
:10158000000006000800fa00204798002107980094
:10159000624798008e06a9002e4090005b0107006c
:1015a0000040eb00004f7800070037002e0090004d
:1015b00010407800550107002e0090000000e80060
:1015c000200798001e4fe8006e4090009e40780073
:1015d00080cf5000f5ff39008e06a8000080fa0089
:1015e000000006000800fa00204798002107980034
:1015f000624798008e06a9002e4090004301070024
:101600000040eb00004f7800080037000040eb007e
:101610003e010700ae009000804878002e00900048
:101620000000e800200798001e4fe8006e40900080
:101630009e40780080cf5000f4ff39002e009000cb
:101640008040eb00014878008e06a8000080fa0078
:10165000000006000600fa00004f780011479800cd
:1016600012079800230798008a06a9008a26a90075
:101670008e06a8008e26a90040062000130307004e
:10168000a1c0b3000040eb00a6ff0700a0002000af
:101690000e03070031c0b30010c0b300a1ff070064
:1016a00031c0b30020c0b3009eff070031c0b300bb
:1016b00030c0b3009bff070081c3b30040c0b3003c
:1016c00098ff07001e4090006700070061c0b3004c
:1016d00060c0b30093ff070052c0b3009e009000ab
:1016e000a0c2b300a7ff070052c0b300ae00900035
:1016f000b0c2b300a3ff070052c0b3009e00900029
:1017000000c3b3009fff070061c0b30010c1b30066
:1017100084ff070061c0b30020c1b30081ff070050
:1017200040062000e90207001e4078000400070080
:1017300040062000e50207000080fa0000000600d5
:101740000200fa00004f78005b00070001c7b300f9
:1017500070c0b30073ff07001e80fb00e10f500054
:1017600003003200e20f5000060032000a0037008a
:10177000f1c0b3000040eb006aff07008e26a8000e
:1017800005003700e1c0b3000040eb0065ff070033
:101790008e26a900000000000080fa00000006006c
:1017a0000200fa00000f780020c0b300e4ff070039
:1017b00062c0b3009e00780000cab30071ff07004a
:1017c0008e26a80010002000c00207008e26a90067
:1017d0000080fa00000006000200fa0070c1b300a9
:1017e0005cff0700004f78009e40780061c06000f9
:1017f0000080fa00000006000000fa0070c0b3008c
:1018000054ff07008080fb0000042000008060007f
:101810000000e0000200320010c0b30005003700f5
:10182000edff07000080fb000000e9004f00de0034
:10183000004078000080fa00000006000200fa0074
:10184000000f780062c0b3009e00780010c6b3009d
:1018500064ff070001c7b30070c0b30031ff070089
:101860000080fa00000006000200fa00004f780035
:101870009e40780050c0b3002aff07000080fa00a5
:10188000000006000000fa0050c0b30031ff07005e
:101890000080fa00000006000000fa00a1c0b300ba
:1018a0000040eb001fff0700a00020008702070098
:1018b0000080fa00000006000000fa008e06a90071
:1018c00010ceb300910007008e06a8008e06a90076
:1018d00020ceb3008d0007008e06a8000080fa001d
:1018e000000006000000fa00f623ef00f823ef00e6
:1018f000fc23ef000424ef000824ef000a24ef008b
:101900000c24ef000e24ef0010122800a01f880006
:101910000080fa00000006000400fa00000f7800c2
:101920001107980000000000e01f800062006000c6
:101930000000e000fcff3a001e0078001040780034
:101940000080fb000020880000000000e11f8000f4
:1019500000022000008060000000e000fbff3a0071
:1019600000208000804078001e0090000148780030
:101970000080fa00000006001800fa00100f98001e
:10198000210f9800320f98000000eb00000f780044
:101990000000eb00100798000000eb0070079800b3
:1019a0000000eb00000f9800100020006007980076
:1019b0001e0890000000e00005003a000000eb0067
:1019c0005007980070004700200798000400370077
:1019d000ee009000510798009e08900021079800a3
:1019e0003e0890000000e00005003a000000eb0017
:1019f000400798006e004700300798000500370048
:101a0000ee00900041079800be0890003107980052
:101a100000000000e01f8000620060000000e000a5
:101a2000fcff3a001d003700e01f800062006000ec
:101a30000000e00009003a002e00900010407800fd
:101a40000080fb0000208800ae0090005e00900047
:101a500000804000200798001e0fe800e11f800072
:101a600000022000008060000000e0000b003a004f
:101a700000208000804078003e00900001487800ff
:101a8000be0090004e00900000804000300798009b
:101a90001e0090000000e800100798002e0890003b
:101aa0009e007800808f5000dfff39001000370063
:101ab000e11f800000022000008060000000e000c4
:101ac0000b003a0000208000804078003e0090002b
:101ad00001487800be0090004e0090000080400059
:101ae000300798001e0090000000e80010079800e2
:101af0009e0090002e089000808f5000ecff39006f
:101b00001e0078000080fa00000006000400fa00c1
:101b1000204798000e80e8008e0078007eff0700c6
:101b20001e4078000080fa00000006000600fa005f
:101b3000000f780011079800220798002e019000ee
:101b40009e0090001e0078008bff07000080fa00c6
:101b5000000006000000fa00a11f800000802000a5
:101b6000008060000000e000020032002000200041
:101b700008003700a11f80000040200000806000a6
:101b80000000e000020032001000200001003700d9
:101b90000000eb000080fa00000006000000fa00e0
:101ba000e01f80000080fa00000006000200fa003a
:101bb000000f78001e007800e30f50002000320074
:101bc000e30f500005003e00e10f5000100032000e
:101bd000e10f500014003e0007003700e50f5000f1
:101be00023003200e50f50001b003900e60f5000c3
:101bf000250032002a003700613a800000fe2f00e5
:101c0000008060000030a000603a880024003700a7
:101c1000613a800000fe2f00008060009000b30059
:101c2000603a88001e003700613a800000fe2f00f5
:101c300000806000e000b300603a880018003700c0
:101c4000613a800000fe2f0000806000f000b300c9
:101c5000603a880012003700613a800000fe2f00d1
:101c600000806000c001b300603a88000c003700bb
:101c7000613a800000fe2f0000806000d001b300b8
:101c8000603a880006003700613a800000fe2f00ad
:101c900000806000e001b300603a880000000000ae
:101ca0000080fa00000006000000fa000040280052
:101cb000303a88004827ef0010202000503a880072
:101cc00090802000603a88004e27ef005027ef00f8
:101cd0005227ef005427ef005827ef005a27ef0054
:101ce0005c27ef005e27ef00f422ef00e0e7200022
:101cf000050007000080fa00000006000000fa005e
:101d00000080fa00000006000200fa00000f7800d0
:101d10001e007800704188000080fa000000060074
:101d20000400fa00100798001e0090009fff0700b3
:101d30004627a8000000eb00000f780001003700e4
:101d40001e0fe8001e007800e30f5000fcff360075
:101d50004627a9000000eb00000f780001003700c3
:101d60001e0fe8001e007800ee0f5000fcff36004a
:101d700000000000303a8000610060000000e000d8
:101d8000fcff3200903880000080fa00000006005e
:101d90000000fa0041048000000022000080600082
:101da0000000e00006003200704180000000e0000a
:101db00002003200704180000000010089a0a900eb
:101dc0000080fa00000006000000fa004627a80084
:101dd0000080fa00000006000000fa004627a90073
:101de0000080fa00000006000800fa0030079800a2
:101df000403a80004200de007f4060000080fb002f
:101e00002007980020712000100798000000eb00c8
:101e1000000f78000b0037001e0078000000400023
:101e2000be009000008040009e009000910078006d
:101e3000010878001e0090000080e800100798005c
:101e40001e0fe8009e0078002e009000808f50004a
:101e5000f1ff36001e0078000080fa000000060046
:101e60000000fa009621ef0010c62100e00c880067
:101e700020232800000d8800804180000000e00041
:101e800002003a0080f820002400070088e0a90042
:101e900098e0a800e08721008040eb00014878002e
:101ea0000080fa00000006000200fa00000f78002f
:101eb0009e007800e10c8800e08721008040eb0064
:101ec000014878000080fa00000006000000fa00d7
:101ed000e00c80000080fa00000006000200fa001a
:101ee000000f78009e007800b10c8800e087210088
:101ef0008040eb00014878000080fa0000000600f6
:101f00000000fa00b00c80000080fa00000006001b
:101f10000000fa000080fa00000006000200fa004b
:101f2000000f780098e0a9009e00780081418800a9
:101f300098e0a8000080fa00000006000000fa0007
:101f4000e08721008040eb000148780098e0a8007d
:101f5000a1e1a8000080fa00000006000000fa00dd
:101f6000a1e1a90098e0a9000080fa0000000600a5
:101f70000200fa00e0872100104f78001e40780030
:101f80000004e00003003200e08721008040eb0005
:101f9000014878001e4078000080fa00000006002a
:101fa0000000fa00f0872100104078000080fb005c
:101fb0000080fa00000006000000fa00f08721000f
:101fc0008040eb00014878000080fa000000060025
:101fd0000000fa009021ef00f09f2f00900c880085
:101fe00000202800a00c8800c08721008040eb0062
:101ff000014878000080fa00000006000000fa00a6
:1020000040048000680060000000e0000900320029
:10201000d0872100104078008040e800d087210060
:1020200001487800c087210011c0b3000148780042
:102030008860a9000080fa00000006000200fa0093
:10204000000f78009e007800910c8800c087210066
:102050008040eb00014878000080fa000000060094
:102060000000fa00900c80000080fa0000000600da
:102070000200fa00000f78009e007800810c8800b2
:10208000c08721008040eb00014878000080fa0002
:10209000000006000000fa00800c80000080fa00ba
:1020a000000006000000fa00c08721008040eb001d
:1020b0000148780095e1a8000080fa0000000600c1
:1020c0000000fa0095e1a9000080fa000000060077
:1020d0000200fa00c0872100104f78001e407800ef
:1020e0000004e00003003200c08721008040eb00c4
:1020f000014878001e4078000080fa0000000600c9
:102100000000fa00d0872100104078000080fb001a
:102110000080fa00000006000000fa00d0872100cd
:102120008040eb00014878000080fa0000000600c3
:102130000000fa006626ef007a26ef008e26ef00f8
:1021400070f9270010338800f0f32900b0338800bd
:1021500070222000503488007426ef008826ef009b
:102160009c26ef007226ef008626ef009a26ef00ed
:102170006826ef007c26ef009026ef00f00020009c
:1021800050338800f0202900f03388003000200010
:102190009034880001088000f00b2000008160006e
:1021a00060042000710520000310200080497800a1
:1021b0008149780082497800d13e800000f82f00e4
:1021c000008060000030a000d03e8800d13e80003a
:1021d000f00f280080806000007020000100700077
:1021e000d03e8800c13d800000fc2f0000806000d0
:1021f0000030a000c03d8800000880000001780089
:102200000260a0006004200071052000031020007f
:102210008049780081497800824978000080fa007e
:0422200000000600b4
:020000040000fa
:102224005018000020000000800000002c0800006e
:102234000200000082000000ffff00002e080000e2
:1022440002000000800000007c1800000200000072
:10225400800000007e1800000200000080000000e2
:102264003008000002000000800000007018000028
:102274000c000000820000003030300031300000db
:102284003030300031370000320800001e100000ea
:1022940080000000000800001c0000008000000016
:1022a4001c0800001000000082000000203005001f
:1022b4000060ea0000006000ea00000001019000f4
:0822c400010000000000000011
:020000040000fa
:1022cc000400fa00100798000000eb00000f7800e3
:1022dc00080037009021ef006fff0700000000009e
:1022ec00810c8000f0f92000808f5000fcff36003c
:1022fc001e0fe8001e0090009e007800808f50009a
:10230c00f4ff39000080fa00000006000400fa0017
:10231c00100798000000eb00000f78000600370053
:10232c009021ef0000000000800c8000e30f5000b3
:10233c00fdff36001e0fe8001e0090009e00780086
:10234c00808f5000f6ff39000080fa000000060074
:10235c000000fa0000002300100888000621ef009e
:10236c006821ef006a21ef000821ef0000702000c7
:10237c00500888000c21ef000e21ef007821ef00af
:10238c007a21ef007c21ef007e21ef008021ef000d
:10239c008221ef008421ef008621ef000001eb0089
:1023ac0080072000a109200013102000804978002c
:1023bc0081497800824978000001eb00600420001c
:1023cc0071052000031020008049780081497800b5
:1023dc00824978000080fa00000006000200fa0032
:1023ec00000f78009e00780061418800ffff3700e5
:1023fc000000fa000085210080077800808621000b
:10240c00000188000080fa00000006000000fa00bd
:10241c0044ff0700ceff0700060007002efd070053
:10242c001efe07008bfe0700e6fe07000080fa0088
:10243c00000006000000fa0051058000f0ff2800a3
:10244c000080600000c0a000500588000080fa00e9
:04245c000000060076
:020000040000fa
:020000040005f5
:045e0000ffffff00a1
:020000040000fa
:020000040005f5
:045e2000ffffff0081
:020000040000fa
:020000040005f5
:045e300078ffff00f8
:020000040000fa
:020000040005f5
:045e3800b3ffff00b5
:020000040000fa
:020000040005f5
:045e4000ffffff0061
:020000040000fa
:020000040005f5
:045e4800ffffff0059
:020000040000fa
:020000040005f5
:045e5000deffff0072
:020000040000fa
:020000040005f5
:045e5800ffffff0049
:00000001FF
